S00B000041434D2E7372656348
S11300003EC0000059C0000057C0000049C50000B0
S113001053C0000051C000004FC000000C941A0EE1
S11300204BC0000049C0000047C0000045C00000AC
S113003043C0000041C000003FC000003DC00000BC
S11300403BC0000039C0000037C0000035C00000CC
S113005033C000004D076A0772077A0782078A07D0
S113006092079A07A207AA07B207CE19CE19CE198A
S1130070FC19041A131ACE19CE19FC19041A1124E6
S11300801FBECFE5D8E0DEBFCDBF11E0A0E6B0E0F3
S1130090E4EBF4E302C005900D92A834B107D9F75C
S11300A028E0A8E4B1E001C01D92AA31B207E1F74B
S11300B00E9468080C94581AA3CF20E040E050E056
S11300C060E070E080919C0190919D010C94550F2B
S11300D0089520E040E050E060E070E080919E01EF
S11300E090919F010E94550F81E008950F931F93F3
S11300F0CF93809160008150809360008823E4F462
S113010085E0809360000FEF1FEF20E030E040E0D7
S113011050E063E080919601909197010E948E18BF
S113012020E040E050E060E070E080919401909124
S113013095010E94550F22C0882301F162E183E0FA
S1130140A0D790916000C7E69C02812D112485956B
S1130150859597FD8395805D42D7809160008C02E0
S1130160C12D1124C595C59587FDC395CC0F9C2F32
S1130170990F990FC90F8C1B805D31D7CF911F91B7
S11301800F91089581E08093630084E1EAEAF0E04E
S1130190A4E6B0E001900D928A95E1F760E08091C9
S11301A0A0019091A1010E94E90E20E040E050E0FE
S11301B061E670E08091A0019091A1010C94550F2B
S11301C00895CF92DF92EF920F931F93CF93DF9313
S11301D000D000D01F92CDB7DEB7E82E6B01142FEC
S11301E019821A821B821D821C8261E081E08E0DBD
S11301F048D710924801113019F0123079F033C009
S1130200A8E4B1E00D900020E9F7119784E1EAEA4F
S1130210F0E001900D928A95E1F725C084E28A838B
S113022086018E2D94E08902000D111D1124F80120
S11302308181805D89838081805D8C83BE016C5F58
S11302407F4F88E491E00E944D1AF8016281738126
S113025088E491E00E944D1ABE016F5F7F4F88E4ED
S113026091E00E944D1AE8E4F1E001900020E9F7E2
S11302703197E854F1400E2F10E049E650E0602F2A
S113028088E491E0D3D66FEF7FEF80919C01909149
S11302909D010E94C0101F5F011778F70F900F9007
S11302A00F900F900F90DF91CF911F910F91EF90CE
S11302B0DF90CF9008950F931F93CF93DF93009710
S11302C0C9F08C01FC0101900020E9F73197DE2F81
S11302D0D81BC0E049E650E06D2FC801A7D66FEFE8
S11302E07FEF80919C0190919D010E94C010CF5F8F
S11302F0DC1780F7DF91CF911F910F910895CF9371
S1130300DF9300D0CDB7DEB740E062E081E00E9429
S11303102B0F9093A1018093A00140E061E081E064
S11303200E942B0F9093920180939101CAD3CBD654
S1130330A7D512BAFF24F394CC24CA94EE24E394F0
S11303406894DD24D1F87CC0C2BAE092840143E011
S113035060E08E2D0E942B0F90939F0180939E014D
S113036020E040E050E060E070E00E94550F43E080
S113037060E08E2D0E942B0F90939D0180939C0131
S113038043E060E08E2D0E942B0F909386018093B2
S1130390850143E060E08E2D0E942B0F909388012D
S11303A08093870143E060E08E2D0E942B0F909391
S11303B09501809394018E2D0E94E70F90939901EB
S11303C0809398010DE510E020E030E04E2D62E0CE
S11303D070E080E090E00E94581890939B01809315
S11303E09A0106E710E021E030E04E2D68EE73E05C
S11303F080E090E00E9458189093970180939601B2
S113040020E04FEF5FEF61E670E08091A0019091F2
S1130410A1010E94550FD982EA82CE0101960E9461
S1130420CE0A20E040E050E060E070E08091980166
S1130430909199010E94550F80E090E00E943A1338
S113044082E090E00E9443151BD5F39412BA8AE02F
S11304508F15B0F779CF80918401811104C088ECA5
S113046090E00E94431580E003E610E0C4E0882396
S113047009F45FC00FB6F8940F920F900FBE8091ED
S11304809301811145C00FB6F8940F921092930115
S11304900F900FBE6FEF7FEF8091980190919901BB
S11304A00E94C010F801C08386E1EEEBF0E0A4E600
S11304B0B0E001900D928A95E1F720E040E050E031
S11304C061E670E08091A0019091A1010E94550F16
S11304D080E797E10E94431555DE6FEF7FEF80912F
S11304E09401909195010E94C01020E040E050E0FA
S11304F060E070E080919801909199010E94550FFD
S113050080918D0190918E010E94881380E0AFCF7D
S113051020E040E050E060E070E08091870190913D
S113052088010E94550F80E090E00E94B91580E098
S11305309ECF6FEF7FEF80919401909195010E947F
S1130540C01095CFCF93DF9300D01F92CDB7DEB705
S113055080918401811104C088EC90E00E944315CD
S113056019821A821B82D12C0F2EF3E6AF2EF0E0F3
S1130570BF2EF02D0F2EF3E0EF2EF02DFF24F39479
S1130580BE016E5F7F4FCE010196C9D2D11008C063
S11305908981882309F45FC08A8181115FC05BC0AF
S11305A08981882309F457C02A81222309F453C07E
S11305B090E00197FC01EE0FFF1FE80FF91FE056D2
S11305C0FF4FE20FF11D3197808110ED180F1430A9
S11305D008F041C06FEF7FEF8091980190919901ED
S11305E00E94C0101B83F501E0828EE0E4EDF0E090
S11305F0A4E6B0E001900D928A95E1F760E0809165
S11306009101909192010E94E90E20E04FEF5FEF7B
S1130610BE016D5F7F4F80919101909192010E9484
S1130620550F20E04FEF5FEF61E670E08091A0018D
S11306309091A1010E94550F20E040E050E060E05D
S113064070E080919801909199010E94550F80E08B
S113065090E00E94B9151B82D12C01C0DF2C82E3EB
S113066090E00E9443158CCFCF93DF931F92CDB7B8
S1130670DEB780918401811104C088EC90E00E946F
S11306804315198210E00F2EF3E6EF2EF0E0FF2E53
S1130690F02D05E001C010E0112309F4C1C08981E7
S11306A08823C9F30FB6F8940F9210919301109216
S11306B093010F900FBE80918F01909190010E9441
S11306C0B91580918D0190918E010E94B915E9812F
S11306D0F0E0EE0FFF1FEE0FFF1FE65DFE4F81817E
S11306E0181708F046C0812FF1D46FEF7FEF809187
S11306F09801909199010E94C010F701008387E04E
S1130700E2EEF0E0A4E6B0E001900D928A95E1F704
S113071020E04FEF5FEF61E670E08091A0019091DF
S1130720A1010E94550F80E797E10E9443152ADD3D
S11307306FEF7FEF80919401909195010E94C0101A
S113074020E040E050E060E070E0809198019091FA
S113075099010E94550F80918F01909190010E9400
S1130760881380918D0190918E010E94881310E06E
S113077093CF811708F045C06FEF7FEF8091980108
S1130780909199010E94C010E981F0E0EE0FFF1FE3
S1130790EE0FFF1FE65DFE4F8181181B812F96D45B
S11307A0F701008387E0E2EEF0E0A4E6B0E0019018
S11307B00D928A95E1F720E04FEF5FEF61E670E07C
S11307C08091A0019091A1010E94550F88E893E1C6
S11307D00E94431520E040E050E060E070E080912A
S11307E08501909186010E94550F20E040E050E081
S11307F060E070E080919801909199010E94550FFA
S11308000BC020E040E050E060E070E080918501A2
S1130810909186010E94550F80E058D410E03CCF9F
S113082019826FEF7FEF80918701909188010E9478
S1130830C010182F4FEF5FEFBE016F5F7F4F8091A5
S11308409101909192010E94371026CF80918401EA
S1130850811104C088EC90E00E94431580E0C3E657
S1130860D0E006E017E0882309F47AC080E02ED4B3
S113087080918F01909190010E94B91580918D0112
S113088090918E010E94B9158091890190918A01FD
S11308900E94B9156FEF7FEF8091980190919901B3
S11308A00E94C01088E893E10E94431508838AE0FF
S11308B0E9EEF0E0A4E6B0E001900D928A95E1F74C
S11308C020E040E050E061E670E08091A00190916A
S11308D0A1010E94550F88E893E10E9443151883F3
S11308E087E0E3EFF0E0A4E6B0E001900D928A9592
S11308F0E1F720E040E050E061E670E08091A00183
S11309009091A1010E94550F88E893E10E9443153C
S113091020E040E050E060E070E080919801909128
S113092099010E94550F2EDC6FEF7FEF80919401A7
S1130930909195010E94C01080918F019091900137
S11309400E94881380918D0190918E010E948813DA
S11309508091890190918A010E94881380E083CF5D
S11309606FEF7FEF80918501909186010E94C01006
S11309707ACFCF93DF9300D0CDB7DEB780918401D7
S1130980811104C088EC90E00E94431510E0F12C22
S113099005C011E003C01F2D01C01F2D113079F0D7
S11309A04FEF5FEFBE016F5F7F4F8091A001909189
S11309B0A1010E943710813089F7112351F31FD30D
S11309C00E9405140FEF1FEF20E030E0AC0161E05E
S11309D080919A0190919B010E948E18A981BA81FD
S11309E08C91863028F4833018F5813039F034C086
S11309F0883078F131C01F5F0F5F02C000E01FEF45
S1130A006FEF7FEF80919E0190919F010E94C01033
S1130A101F3F31F441E06EE271E08FEFD2DBEBCFA8
S1130A2042E06EE271E0812FCCDB033024F314C08A
S1130A3011960D900020E9F7119788E0EAEFF0E0B5
S1130A4001900D928A95E1F789819A81019633DCB0
S1130A5003C0CD0101962FDC00E010E020E030E07F
S1130A6040E050E063E080919A0190919B010E94E4
S1130A708E18E981FA818081813009F48CCF873026
S1130A8009F48BCF0E94051420E030E0AC0161E052
S1130A9080919601909197010E948E181F2D7ECF10
S1130AA01F920F920FB60F9211248F93809193018E
S1130AB08F5F809393018F910F900FBE0F901F90C3
S1130AC018958091A301813041F161E082E110D455
S1130AD061E083E10DD461E084E10AD460E085E162
S1130AE007D460E086E104D460E087E101D485E1C5
S1130AF0FFD486E1FDD487E1FBD461E082E14FD3EA
S1130B0061E083E14CD361E084E149D31092A20116
S1130B1081E08093A30180E0089581E00895CF925D
S1130B20DF92EF92FF920F931F93CF93DF931F9265
S1130B30CDB7DEB78C017B0181E08983F801108297
S1130B40FB0110828091A201882321F0813009F4F5
S1130B5096C058C18BE0D1D48091A301813009F0B3
S1130B6051C1012B09F44EC1EF2809F44BC160E0D7
S1130B7082E115D361E083E112D361E084E10FD314
S1130B80BE016F5F7F4F85E15CD48981811104C010
S1130B9081E08093A20117C0BE016F5F7F4F86E1A1
S1130BA050D48981811104C081E08093A2010BC0DB
S1130BB0BE016F5F7F4F87E144D48981811103C0F7
S1130BC081E08093A20160E083E1E9D261E082E107
S1130BD0E6D261E084E1E3D2BE016F5F7F4F85E13D
S1130BE030D48981811104C081E08093A20117C0AF
S1130BF0BE016F5F7F4F86E124D48981811104C0D7
S1130C0081E08093A2010BC0BE016F5F7F4F87E13B
S1130C1018D48981811103C081E08093A20160E02E
S1130C2084E1BDD261E082E1BAD261E083E1B7D26E
S1130C30BE016F5F7F4F85E104D48981811104C0B7
S1130C4081E08093A201DEC0BE016F5F7F4F86E129
S1130C50F8D38981811104C081E08093A201D2C0BC
S1130C60BE016F5F7F4F87E1ECD38981811103C09F
S1130C7081E08093A20161E084E191D2C3C060E08D
S1130C8082E18DD261E083E18AD261E084E187D29E
S1130C90BE016F5F7F4F85E1D4D38981811106C086
S1130CA081E08093A201CC24C394AFC0BE016F5FE6
S1130CB07F4F86E1C6D38981811107C081E080938B
S1130CC0A2016894CC24C1F8A0C0BE016F5F7F4F1D
S1130CD087E1B7D38981811108C081E08093A201A3
S1130CE00F2EF3E0CF2EF02D90C01092A20160E001
S1130CF083E155D261E082E152D261E084E14FD2D6
S1130D00BE016F5F7F4F85E19CD38981811106C04D
S1130D1081E08093A201CC24C3947AC0BE016F5FAA
S1130D207F4F86E18ED38981811107C081E0809352
S1130D30A2016894CC24C1F86BC0BE016F5F7F4FE1
S1130D4087E17FD38981811108C081E08093A2016A
S1130D500F2EF3E0CF2EF02D5BC01092A20160E0C5
S1130D6084E11DD261E082E11AD261E083E117D20D
S1130D70BE016F5F7F4F85E164D3898181110AC011
S1130D8081E08093A201CC24C3940F2EF3E0DF2EE4
S1130D90F02D2BC0BE016F5F7F4F86E152D3898156
S1130DA081110BC081E08093A2016894CC24C1F826
S1130DB00F2EF3E0DF2EF02D18C0BE016F5F7F4FC2
S1130DC087E13FD3898181110CC081E08093A20126
S1130DD00F2EF3E0CF2EF02D0F2EF3E0DF2EF02DAB
S1130DE004C01092A201C12CD12C61E084E1D7D1BE
S1130DF061E082E1D4D161E083E1D1D1F801D08214
S1130E00F701C0828091A20107C0DD24D394EDCF05
S1130E106894DD24D1F8E9CF0F90DF91CF911F9131
S1130E200F91FF90EF90DF90CF900895CF93C82F4C
S1130E3060E083E0B4D18BB38F70C07FC82BCBBB91
S1130E4060E081E0ACD160E082E0A9D161E083E0C0
S1130E50A6D180E18A95F1F700C060E083E09FD1DC
S1130E60CF9108958295807F8BBB61E083E097D119
S1130E7080E18A95F1F700C060E083E090C10895B5
S1130E80E091A5018E2F90E08B30910508F070C0A1
S1130E90FC01E65DFF4F0C943E1A61E082E028D22B
S1130EA061E081E025D261E083E022D261E084E068
S1130EB01FD261E085E01CD261E086E019D261E0D6
S1130EC087E016D283E3B2DF8091A5018F5F809320
S1130ED0A5014EC083E3C6DF8091A5018F5F809397
S1130EE0A50146C082E3A2DF8091A5018F5F8093B4
S1130EF0A5013EC082E3B6DF8091A5018F5F809398
S1130F00A50136C088E292DF8091A5018F5F8093AE
S1130F10A5012EC088E2A6DF8091A5018F5F809392
S1130F20A50126C08FE082DF8091A5018F5F8093A9
S1130F30A5011EC08FE096DF8091A5018F5F80938D
S1130F40A50116C081E072DF8091A5018F5F8093B7
S1130F50A5010EC081E086DF8091A5018F5F80939B
S1130F60A50106C08BE08093A50185E08093A900CC
S1130F708091A50108959091A900953091F49BB3B7
S1130F809F70807F892B8BBBD99A61E083E007D166
S1130F9080E18A95F1F700C060E083E000D180E051
S1130FA0089584E0089530E13A95F1F700C09091F6
S1130FB0A900953091F4982F8BB3282F2F7030E12E
S1130FC0939FC0011124822B8BBB61E083E0E7D0A7
S1130FD060E083E0E4D080E0089584E00895CF9356
S1130FE0C82FC9DF81E28A95F1F700008C2FDBDF7F
S1130FF081E28A95F1F7000080E0CF91089581E0C5
S11310008093A6018091A900853051F481E00EDF20
S113101081E28A95F1F7000081E024DF80E001C0DD
S113102084E091E29A95F1F7000008959C0191E023
S11310309093A6019091A9009530E9F4211531050A
S1131040E1F0FA018091A401861760F4F901E80F38
S1131050F11D8081C4DF8091A4018F5F8093A4017E
S113106080E00895309759F009951092A6011092E6
S1131070A40180E0089584E0089581E0089581E06A
S11310800895CF93813049F028F0823049F08330BD
S113109051F00BC0CFE7C60F08C0CFEBC60F05C099
S11310A0C3E9C60F02C0C3EDC60F8C2FBFDE82E3B7
S11310B08A95F1F78C2FD6DE81E28A95F1F700004C
S11310C080E0CF9108958FEF81BB089582BB08958E
S11310D0EF92FF920F93E12CF12C04E020E030E03A
S11310E044E650E060E070E08FE791E00E94321245
S11310F00F2EFFE8EF2EF1E0FF2EF02D03E020E0AD
S113110030E04CE350E060E070E08BE292E00E945B
S113111032120F2EFDE8EF2EF1E0FF2EF02D20E02D
S113112030E04CE350E060E070E082EA92E00E943C
S113113032120F2EF9E8EF2EF1E0FF2EF02D02E02F
S113114020E030E04CE350E060E070E084E393E0C2
S11311500E943212E12CF12C01E020E030E04CE35B
S113116050E060E070E086E294E00E9432120F2EBC
S1131170FBE8EF2EF1E0FF2EF02D20E030E044E616
S113118050E060E070E089EB94E00E9432120E942B
S1131190D41380E090E00F91FF90EF900895803297
S11311A008F09EC061114FC0883080F44BB3877043
S11311B021E030E0B90102C0660F771F8A95E2F79B
S11311C0CB01809584238BBB80E0089598EF980F22
S11311D0983080F448B3877021E030E0B90102C050
S11311E0660F771F8A95E2F7CB018095842388BB2D
S11311F080E0089590EF980F983080F445B387709D
S113120021E030E0B90102C0660F771F8A95E2F74A
S1131210CB018095842385BB80E0089598EE980FD8
S1131220983008F05FC042B3877021E030E0B90124
S113123002C0660F771F8A95E2F7CB01809584235D
S113124082BB80E00895613009F04EC0883078F4A4
S11312504BB3877021E030E0B90102C0660F771FFD
S11312608A95E2F7CB01842B8BBB80E0089598EF3D
S1131270980F983078F448B3877021E030E0B901D2
S113128002C0660F771F8A95E2F7CB01842B88BBD7
S113129080E0089590EF980F983078F445B3877004
S11312A021E030E0B90102C0660F771F8A95E2F7AA
S11312B0CB01842B85BB80E0089598EE980F98307D
S11312C0A8F442B3877021E030E0B90102C0660F90
S11312D0771F8A95E2F7CB01842B82BB80E00895C7
S11312E081E0089580E0089584E0089580E0089501
S11312F0803208F09EC061114FC0883080F44AB338
S1131300877021E030E0B90102C0660F771F8A952B
S1131310E2F7CB01809584238ABB80E0089598EF9F
S1131320980F983080F447B3877021E030E0B9011A
S113133002C0660F771F8A95E2F7CB01809584235C
S113134087BB80E0089590EF980F983080F444B301
S1131350877021E030E0B90102C0660F771F8A95DB
S1131360E2F7CB018095842384BB80E0089598EE56
S1131370980F983008F05FC041B3877021E030E0E7
S1131380B90102C0660F771F8A95E2F7CB018095F9
S1131390842381BB80E00895613009F04EC0883019
S11313A078F44AB3877021E030E0B90102C0660FD7
S11313B0771F8A95E2F7CB01842B8ABB80E00895DE
S11313C098EF980F983078F447B3877021E030E0B5
S11313D0B90102C0660F771F8A95E2F7CB01842B0F
S11313E087BB80E0089590EF980F983078F444B369
S11313F0877021E030E0B90102C0660F771F8A953B
S1131400E2F7CB01842B84BB80E0089598EE980F1B
S11314109830A8F441B3877021E030E0B90102C0EC
S1131420660F771F8A95E2F7CB01842B81BB80E09E
S1131430089581E0089580E0089583E0089580E0B0
S11314400895803208F050C06115710509F44EC04A
S1131450883068F449B3877021E030E0F90102C0B4
S1131460EE0FFF1F8A95E2F7CF01842332C098EF75
S1131470980F983068F446B3877021E030E0F901A2
S113148002C0EE0FFF1F8A95E2F7CF01842321C02B
S113149090EF980F983068F443B3877021E030E000
S11314A0F90102C0EE0FFF1F8A95E2F7CF018423F2
S11314B010C098EE980F983098F440B3877021E0EC
S11314C030E0F90102C0EE0FFF1F8A95E2F7CF0169
S11314D08423882329F081E0FB01808380E0089540
S11314E0FB01108280E0089581E0089586E008956C
S11314F061E055DE811185E00895803208F04AC02C
S1131500883078F44BB3877021E030E0B90102C031
S1131510660F771F8A95E2F7CB0184278BBB80E0A7
S1131520089598EF980F983078F448B3877021E0C5
S113153030E0B90102C0660F771F8A95E2F7CB014C
S1131540842788BB80E0089590EF980F983078F452
S113155045B3877021E030E0B90102C0660F771F00
S11315608A95E2F7CB01842785BB80E0089598EE45
S1131570980F983088F442B3877021E030E0B901C5
S113158002C0660F771F8A95E2F7CB01842782BBDE
S113159080E0089581E0089580E00895CF93DF937B
S11315A0EC018FB78F778FBF888181110CC060E009
S11315B08AE19EDE8BB780648BBF85B78C7F99816F
S11315C0892B85BF1BC0813061F460E08BE190DE24
S11315D08BB780688BBF85B7837F9981892B85BF43
S11315E00DC0823059F460E08AE082DE8BB78062FD
S11315F08BBF84B78F7B9981892B84BF8FB7806819
S11316008FBFDF91CF910895CF93DF93DC01EFEA91
S1131610F1E001C0F901208131812A173B07D0F3A1
S113162082819381AF01480F591FA417B50749F46C
S113163012964D915C911397840F951F9383828327
S1131640DF0112968D919C911397ED01C80FD91F5C
S11316502C173D07D9F42091AD013091AE01C2178A
S1131660D30781F02A813B81820F931F13969C93A9
S11316708E931297C081D1818881998111969C9310
S11316808E9307C01196DC93CE9303C011963C93BE
S11316902E93AE17BF0711F0B183A083DF91CF91D2
S11316A00895CF92DF92EF92FF920F931F93CF93FF
S11316B0DF93EC010E94FF138091AD019091AE0184
S11316C0892B41F5EFEAF1E0A3EBB1E0B183A0830C
S11316D013821282EBE8F7E0F093AE01E093AD01E0
S11316E0138212821182108288ED95E013969C93E6
S11316F08E931297ED93FC939093AA018093A90182
S11317009093AC018093AB0180E090E89093A801A2
S11317108093A701E090A701F090A801C7018C2352
S11317209D23892B09F05EC0209709F45EC0AE01A9
S11317304C5F5F4F09F45CC00091AB011091AC01A8
S11317400417150708F457C0C091AF01D091B00138
S1131750EFEAF1E002C0FE01E9012A813B8124178E
S1131760350728F42881398121153105A1F78091A5
S1131770AD019091AE01C817D90709F43FC0C080EC
S1131780D18084E0C80ED11C8881998191838083A3
S11317902A813B81241B350B2930310548F0CE01C9
S11317A0840F951FFC01338322835B834A832CDFE0
S11317B08A819B81081B190B1093AC010093AB0128
S11317C02091A9013091AA010217130720F4109364
S11317D0AA010093A901E82AF92AFB82EA82198264
S11317E018820EC0C12CD12C0BC0C12CD12C08C026
S11317F0C12CD12C05C0C12CD12C02C0C12CD12CA0
S11318000E94C714C601DF91CF911F910F91FF90E1
S1131810EF90DF90CF900895CF93DF93009749F135
S1131820FC013497228133814091A7015091A80192
S1131830B90164237523672BE1F060817181672B03
S1131840C1F4EF014095509524233523338322833B
S1131850D6D72091AB013091AC018A819B81820F54
S1131860931F9093AC018093AB01CE01CDDE0E9417
S1131870C714DF91CF910895FC010396928381836D
S11318802FEF3FEF34832383968385839087878369
S113189010820895FC01118610860895CF93DF937A
S11318A09C01FB01DC011196CD91DC911297D3834D
S11318B0C2838C819D81958384838C819D81DC018D
S11318C013967C936E9312977D836C833187208764
S11318D0F90180818F5F8083DF91CF910895CF9349
S11318E0DF93EB01488159814F3F2FEF520721F4D9
S11318F0FC01A781B0850DC0DC01139601C0DF0196
S11319001296ED91FC911397208131814217530770
S1131910B0F71296ED91FC911397FB83EA83D5837C
S1131920C483BD83AC831396DC93CE9312979987BB
S11319308887FC0120812F5F2083DF91CF91089558
S1131940CF93DF93FC01A085B185C281D3818481CB
S113195095819D838C83C481D581828193819B836E
S11319608A8311968D919C911297E817F90731F4A7
S11319708481958112969C938E931197118610867B
S11319808C9181508C938C91DF91CF91089531E1AA
S1131990FC013083319722E220833197A3E3A083B3
S11319A0319760833197708331971082319760E863
S11319B0608331971082319762E06083319763E0EE
S11319C06083319764E06083319765E06083319789
S11319D066E06083319767E06083319768E06083F5
S11319E0319769E06083319760E160833197308398
S11319F0319732E13083319733E13083319734E1E9
S1131A003083319735E13083319736E13083319734
S1131A1037E13083319738E13083319739E13083CE
S1131A20319730E23083319731E23083319720832C
S1131A30319723E220833197408331975083319744
S1131A4026E22083319727E22083319728E22083FE
S1131A50319729E22083319720E32083319721E3D2
S1131A602083869708951BBC8EE08ABD8BE08EBDD3
S1131A7089B7806189BFA091FC07B091FD07CD9122
S1131A80CDBFDD91DEBFFF91EF91DF91CF91BF918B
S1131A90AF919F918F917F916F915F914F913F9102
S1131AA02F911F910F91FF90EF90DF90CF90BF90F7
S1131AB0AF909F908F907F906F905F904F903F90EA
S1131AC02F901F900F900FBE0F90089581E00895FE
S1131AD00F920FB6F8940F921F9211242F923F92F7
S1131AE04F925F926F927F928F929F92AF92BF922A
S1131AF0CF92DF92EF92FF920F931F932F933F9316
S1131B004F935F936F937F938F939F93AF93BF9301
S1131B10CF93DF93EF93FF93A091FC07B091FD0760
S1131B200DB60D920EB60D92BED7A091FC07B091E2
S1131B30FD07CD91CDBFDD91DEBFFF91EF91DF9128
S1131B40CF91BF91AF919F918F917F916F915F9151
S1131B504F913F912F911F910F91FF90EF90DF9044
S1131B60CF90BF90AF909F908F907F906F905F9039
S1131B704F903F902F901F900F900FBE0F9008959D
S1131B800F920FB6F8940F921F9211242F923F9246
S1131B904F925F926F927F928F929F92AF92BF9279
S1131BA0CF92DF92EF92FF920F931F932F933F9365
S1131BB04F935F936F937F938F939F93AF93BF9351
S1131BC0CF93DF93EF93FF93A091FC07B091FD07B0
S1131BD00DB60D920EB60D9222D6811164D7A09146
S1131BE0FC07B091FD07CD91CDBFDD91DEBFFF9124
S1131BF0EF91DF91CF91BF91AF919F918F917F91A1
S1131C006F915F914F913F912F911F910F91FF9091
S1131C10EF90DF90CF90BF90AF909F908F907F9088
S1131C206F905F904F903F902F901F900F900FBE3A
S1131C300F900895A5DF18950FB6F8940F92FC0144
S1131C40928D0F900FBE81E0911180E008950F9363
S1131C501F93CF93DF93EC01042F1A8D4C8D411108
S1131C600CC088819981892B09F042C08C819D81A7
S1131C700E943E171D821C8242C0011117C050E011
S1131C808A819B810E94441A2C8D8A819B81820FB8
S1131C90911D9B838A832C813D818217930750F188
S1131CA0888199819B838A8380E029C050E08E815A
S1131CB09F810E94441A8C8D90E0919581959109A1
S1131CC02E813F81280F391F3F832E8348815981FC
S1131CD02417350730F42C813D81820F931F9F8395
S1131CE08E83023049F4112349F0115080E007C07B
S1131CF080E005C080E003C080E001C080E01F5F99
S1131D001A8FDF91CF911F910F910895FC01448D9B
S1131D104423A9F050E026813781240F351F3783EF
S1131D202683848195812817390720F08081918149
S1131D3097838683CB01668177810C94441A089536
S1131D40EF92FF920F931F93CF938C010FB6F894E9
S1131D500F92FC01C68D1C169CF48189811106C06A
S1131D600FC0F8018189811105C00AC07801F1E131
S1131D70EF0EF11CC70176D78111FCD7C15089F74A
S1131D808FEFF801868F0F900FBE0FB6F8940F9265
S1131D90C58D1C169CF48085811106C00FC0F80106
S1131DA08085811105C00AC07801F8E0EF0EF11CAE
S1131DB0C70158D78111DED7C15089F78FEFF801D9
S1131DC0858F0F900FBECF911F910F91FF90EF90D1
S1131DD00895CF93DF93EC010FB6F8940F92E88146
S1131DE0F9818B8D2C8D90E030E0829FA001839F40
S1131DF0500D929F500D11244E0F5F1F5D834C8335
S1131E001A8EFB83EA830197829FA001839F500D62
S1131E10929F500D1124CF01840F951F9F838E83B1
S1131E208FEF8D8F8E8F61110AC08885882369F0AA
S1131E30CE01089617D7882341F04ADE06C0CE01AA
S1131E4008961ADDCE01419617DD0F900FBE81E092
S1131E50DF91CF9108950F931F93CF93DF93082FB2
S1131E60162F6623B1F0869FC00111244F9619DC0A
S1131E70EC01009739F413C00B8F1C8F61E0CE0185
S1131E80A8DF0DC04F9699838883F6CFD983C88382
S1131E90F3CF8FE190E005DCEC01892BB9F7CE019B
S1131EA0DF91CF911F910F9108959F92AF92BF92AE
S1131EB0CF92DF92EF92FF920F931F93CF93DF9312
S1131EC000D000D01F92CDB7DEB78C016B015D83CB
S1131ED04C83A22EB12C992493947C0188E0E80EC3
S1131EE0F11C0FB6F8940F92F801928D838D981718
S1131EF018F0F2E0AF1215C04A2DB601C801A7DEF2
S1131F00F8019189992339F0C8014196ABD6882309
S1131F1021F0DEDD02C08111DBDD0F900FBE81E018
S1131F2045C08C819D81892B21F40F900FBE80E0E8
S1131F303DC0B11004C0CE010196DCD6B92C0F907F
S1131F400FBE5DD40FB6F8940F92F801858D8F3FC4
S1131F5009F4158EF801868D8F3F09F4168E0F90C3
S1131F600FBEBE016C5F7F4FCE010196CED68111AC
S1131F7019C00FB6F8940F92F801928D0F900FBE0E
S1131F80838D98130BC06C817D81C70142D6C80133
S1131F90D7DEFDD48111A5CF9BDDA3CFC801D0DE50
S1131FA0F6D49FCFC801CCDEF2D480E00F900F901E
S1131FB00F900F900F90DF91CF911F910F91FF9091
S1131FC0EF90DF90CF90BF90AF909F900895CF9304
S1131FD0DF93482F60E081E03EDFEC01009759F089
S1131FE01D821C82198218821E8220E040E050E08B
S1131FF060E070E05ADFCE01DF91CF910895EF9257
S1132000FF920F931F93CF93DF938A01FC01528DAC
S1132010338D531710F02230E1F4422F7801EC0194
S11320201E8D15DE1F3F79F489898823A1F0CE0126
S1132030419618D6882389F0E114F10481F081E0F7
S1132040F70180830DC0FF24F394F10EFE8E81E02E
S113205007C080E005C081E003C081E001C081E0E9
S1132060DF91CF911F910F91FF90EF9008959F9270
S1132070AF92BF92CF92DF92EF92FF920F931F9392
S1132080CF93DF9300D000D01F92CDB7DEB78C0181
S11320905B015D834C83E12C992493946C0181E171
S11320A0C80ED11C0FB6F8940F92F801F28CFF20E1
S11320B091F0B501C8012ADEFA94F801F28E808508
S11320C0882329F0C8010896CDD5811101DD0F9030
S11320D00FBE81E044C08C819D81892B21F40F9037
S11320E00FBE80E03CC0E11004C0CE01019602D6D0
S11320F0E92C0F900FBE83D30FB6F8940F92F8011A
S1132100858D8F3F09F4158EF801868D8F3F09F474
S1132110168E0F900FBEBE016C5F7F4FCE010196ED
S1132120F4D5811113C0C80187DD882359F06C816F
S11321307D81C6016ED5C80103DE29D48111B2CFD9
S1132140C7DCB0CFC801FCDD22D4ACCFC801F8DDB8
S11321501ED4C80171DD882309F4A4CF80E00F9058
S11321600F900F900F900F90DF91CF911F910F91CF
S1132170FF90EF90DF90CF90BF90AF909F90089525
S1132180BF92CF92DF92EF92FF920F931F93CF9360
S1132190DF9300D000D01F92CDB7DEB78C017D83D2
S11321A06C83B12CD12CCC24C3947C0181E1E80E46
S11321B0F11C0FB6F8940F92D8015A968C915A9745
S11321C08823D1F081505A968C935A978D919C9183
S11321D0892B21F4E3D6F80195838483D8011896DA
S11321E08C91882329F0C80108963CD5811170DCB4
S11321F00F900FBE81E070C08C819D81892B21F4EA
S11322000F900FBE80E068C0D11004C0CE010196CB
S113221071D5DC2C0F900FBEF2D20FB6F8940F924A
S1132220F801858D8F3F09F4158ED8015E968C9147
S11322305E978F3F11F45E961C920F900FBEBE0105
S11322406C5F7F4FCE01019660D5811121C0C8011A
S1132250F3DC8823C9F0F80180819181892B49F44A
S11322600FB6F8940F928481958196D5B82E0F906D
S11322700FBE6C817D81C701CCD4C80161DD87D3D9
S1132280811197CF25DC95CFC8015ADD80D391CF3A
S1132290C80156DD7CD3C801CFDC882309F489CF7B
S11322A0BB20C9F00FB6F8940F92F80181898823F6
S11322B039F00688F789E02D808165E0681B01C04C
S11322C060E0D80114968D919C91159717D60F90C4
S11322D00FBE80E001C080E00F900F900F900F9030
S11322E00F90DF91CF911F910F91FF90EF90DF90AE
S11322F0CF90BF900895CF93DF93EC010FB6F8947D
S11323000F928D8D8F3F09F41D8E8E8D8F3F09F4B2
S11323101E8E0F900FBE8A8D811103C0CE0141968F
S113232089D4CE010DDDDF91CF910895E091BB07F3
S1132330F091BC078081811107C08FEF9FEF9093CC
S11323409307809392070895E091BB07F091BC072F
S11323500580F681E02D0680F781E02D828193814E
S11323609093930780939207089507EA17E080916A
S1132370A6078823E1F30FB6F8940F92D8011596B7
S1132380ED91FC911697C681D781CE010296D8DAD9
S113239080919C07815080939C078091A60781506F
S11323A08093A6070F900FBE8F89988D35DACE01E2
S11323B033DA8091A6078111DECFD9CFFF920F9334
S11323C01F93CF93DF93EC01F62E00919A0710919F
S11323D09B078091FC079091FD070296B1DACF3FED
S11323E08FEFD80761F4FF2051F06091FC077091E2
S11323F0FD076E5F7F4F8DE997E050DA2DC0C00F67
S1132400D11FE091FC07F091FD07D383C283C0176D
S1132410D10760F46091FC077091FD078091B907C2
S11324209091BA076E5F7F4F5ADA16C06091FC072D
S11324307091FD078091BB079091BC076E5F7F4F41
S11324404EDA8091920790919307C817D90720F428
S1132450D0939307C0939207DF91CF911F910F916F
S1132460FF9008954F925F926F927F928F929F9206
S1132470AF92BF92CF92DF92EF92FF920F931F938E
S1132480CF93DF934C016B015A012901CA0109D989
S11324903C01892B09F4DCC088E290E002D9EC010C
S11324A0892B59F0788E6F8A81E0A81AB1086A0CDA
S11324B07B1CC114D10421F41FC0C301ADD9C8C011
S11324C0D6018C91898F8C918823A1F0AE01465E50
S11324D05F4FF6013196B8E0CB0ED11CCF012191AC
S11324E0DA012D93AD01DC018C91882319F0CE160D
S11324F0DF06A1F718A201C0198E053008F004E028
S11325000E8B09A31AA26E01B2E0CB0ED11CC60138
S1132510C1D9CE010C96BED9D987C88785E090E091
S1132520801B91099D878C87DB8BCA8B1BA21CA205
S11325301DA21EA21FA2A201B401C30128DA99831D
S11325408883E114F10419F0F701D183C0830FB635
S1132550F8940F9280919C078F5F80939C078091E1
S1132560FC079091FD07892BA1F5D093FD07C0933B
S1132570FC0780919C07813009F03BC00FEC17E009
S11325800F2EFCEFEF2EF7E0FF2EF02DC80174D9CB
S1132590075F1F4F0E151F05C9F786EC97E06CD92E
S11325A08DEB97E069D980EB97E066D987EA97E0ED
S11325B063D98DE997E060D986EC97E09093BC07E6
S11325C08093BB078DEB97E09093BA078093B9078C
S11325D010C08091980781110CC0E091FC07F09124
S11325E0FD0796898E89891720F0D093FD07C09343
S11325F0FC07809194078F5F809394078E89909154
S11326009907981710F48093990790E09C01220F82
S1132610331F220F331F220F331F820F931FB60164
S11326208153984F3BD90F900FBE80919807882310
S113263059F0E091FC07F091FD0796898E8998176F
S113264028F446DA81E005C081E003C081E001C0DE
S11326508FEFDF91CF911F910F91FF90EF90DF905B
S1132660CF90BF90AF909F908F907F906F905F902E
S11326704F9008950F931F93CF93DF93EC010FB600
S1132680F8940F92892B21F4C091FC07D091FD0797
S11326908E010E5F1F4FC80153D98C899D89892BE8
S11326A019F0CE010C964CD9809194078F5F8093DA
S11326B094078091FC079091FD07C817D90751F43E
S11326C0B80187EA97E0EAD88091A6078F5F8093E4
S11326D0A6070BC080919C07815080939C078F892B
S11326E0988D9AD8CE0198D821DE0F900FBE809194
S11326F09807882341F08091FC079091FD07C81743
S1132700D90709F4E5D9DF91CF911F910F9108956D
S11327100F931F93CF93DF932091FC073091FD0714
S11327208217930709F43BC0009709F438C00FB629
S1132730F8940F92FC01228533852D59374069F5B1
S1132740FC0124893589F7E0203B3F0731F1232B35
S113275021F5EC018C010E5F1F4FC801F1D88E8961
S113276090919907981710F48093990790E09C0131
S1132770220F331F220F331F220F331F820F931F89
S1132780B8018153984F8AD8E091FC07F091FD0776
S11327909E898689981708F09BD90F900FBEDF9108
S11327A0CF911F910F910895EF92FF920F930F2EE7
S11327B0F0E9EF2EF7E0FF2EF02D00E020E030E00E
S11327C045E550E06AE371E085EB91E14BDE813051
S11327D091F44ED4813079F4F8948FEF9FEF909375
S11327E093078093920781E08093980710929B0748
S11327F010929A0738D90F91FF90EF900895809125
S11328008F078F5F80938F0708950FB6F8940F9208
S113281080919A0790919B070F900FBE0895CF92D5
S1132820DF92EF92FF920F931F93CF93DF938091E8
S11328308F07811196C0E0909A07F0909B078FEF65
S1132840E81AF80AF0929B07E0929A07E114F1045F
S1132850B1F48091BB079091BC072091B9073091E6
S1132860BA073093BC072093BB079093BA078093B1
S1132870B907809195078F5F8093950757DD809105
S1132880920790919307E816F90610F4D12C51C0E1
S1132890D12CCC24C394E091BB07F091BC07808178
S11328A0811107C08FEF9FEF909393078093920756
S11328B040C0E091BB07F091BC070580F681E02D94
S11328C0C681D7818A819B81E816F90628F4909302
S11328D09307809392072DC08E010E5F1F4FC8018E
S11328E02FD88C899D89892B19F0CE010C9628D874
S11328F08E8990919907981710F48093990790E026
S11329009C01220F331F220F331F220F331F820F0C
S1132910931FB8018153984F0E944E0CE091FC071D
S1132920F091FD079E898689981708F4B4CFDC2CB2
S1132930B2CFE091FC07F091FD07868990E0FC019D
S1132940EE0FFF1FEE0FFF1FEE0FFF1F8E0F9F1FD7
S1132950FC01E153F84F8081823048F0DD24D394A8
S113296006C0809197078F5F80939707D12C809141
S11329709607882311F0DD24D3948D2DDF91CF9118
S11329801F910F91FF90EF90DF90CF900895DF9209
S1132990EF92FF920F931F93CF93DF930FB6F894A8
S11329A00F9280918F07815080938F0780918F07BA
S11329B081115CC080919C07811133C05AC0D7013A
S11329C01596ED91FC911697C681D781CE010C9690
S11329D00E94A00C8E010E5F1F4FC8010E94A00C24
S11329E08E8990919907981710F48093990790E035
S11329F09C01220F331F220F331F220F331F820F1C
S1132A00931FB8018153984F0E944E0CE091FC072C
S1132A10F091FD079E898689981768F0D0929607F1
S1132A200AC0C0E0D0E00F2EF0EBEF2EF7E0FF2E4F
S1132A30F02DDD24D394F70180818111C0CFCD2BFB
S1132A4009F074DCC0919707CC2349F0D1E0E7DEAC
S1132A508111D0939607C150D1F7109297078091B6
S1132A609607882329F034D881E003C080E001C0B0
S1132A7080E00F900FBEDF91CF911F910F91FF90D7
S1132A80EF90DF900895CF93DF93EC01892B39F019
S1132A90B6DE60E0CE0192DC7ADF811101C018D885
S1132AA0DF91CF91089580918F07882321F081E0F1
S1132AB08093960708951092960720919907822F84
S1132AC090E0FC01EE0FFF1FEE0FFF1FEE0FFF1F44
S1132AD0E80FF91FE153F84F3081311111C0215033
S1132AE0822F90E0FC01EE0FFF1FEE0FFF1FEE0F91
S1132AF0FF1FE80FF91FE153F84F3081332379F3B7
S1132B00AC01440F551F440F551F440F551F480F68
S1132B10591FDA01A153B84F1196ED91FC91129708
S1132B200280F381E02D1296FC93EE9311974E529E
S1132B30584FE417F50729F442815381FD0152836C
S1132B404183FC01EE0FFF1FEE0FFF1FEE0FFF1F6F
S1132B508E0F9F1FFC01E153F84F0180F281E02D9D
S1132B60868197819093FD078093FC0720939907B2
S1132B7008950F931F93CF93DF93EC010FB6F8944E
S1132B800F92892B21F4C091FC07D091FD078E018F
S1132B900E5F1F4FC8010E94A00C8C899D89892B50
S1132BA021F0CE010C960E94A00CB8018DE997E0AB
S1132BB00E944E0C8FA1813009F41FA20F900FBE0A
S1132BC080919807882331F00FB6F8940F92AEDB0A
S1132BD00F900FBE8091FC079091FD07C817D9078D
S1132BE099F480919807882319F00E94680D0CC00D
S1132BF090919D0780919C07981305C01092FD0742
S1132C001092FC0701C04FDFDF91CF911F910F910C
S1132C100895CF93DF93EB016091FC077091FD075A
S1132C20645F7F4F0E946F0C61E0CE01C7DBDF91D0
S1132C30CF9108950F931F93CF938B01C42F60916D
S1132C40FC077091FD07645F7F4F0E944E0CCC23FC
S1132C5011F00FEF1FEF6C2FC801B0DBCF911F9164
S1132C600F9108950F931F93CF93DF93DC01159673
S1132C70ED91FC911697C681D7818E01045F1F4F99
S1132C80C8010E94A00C80918F0781111CC00A50BA
S1132C901109C8010E94A00C8E8990919907981778
S1132CA010F48093990790E09C01220F331F220FA8
S1132CB0331F220F331F820F931FB8018153984F84
S1132CC00E944E0C05C0B80180EB97E00E944E0CA8
S1132CD0E091FC07F091FD079E898689891720F40D
S1132CE081E08093960701C080E0DF91CF911F912E
S1132CF00F91089520919507FC01208320919A0754
S1132D0030919B07328321830895CF93DF930FB6CD
S1132D10F8940F9220919A0730919B07DB014D9113
S1132D205C914F3FBFEF5B07E9F0EC01E981FA8169
S1132D30A0919507B881BA1719F02E173F07A0F490
S1132D402E1B3F0B2417350740F4FB01421B530B8A
S1132D5051834083CFDF80E008C0FB0111821082E1
S1132D6081E003C080E001C081E00F900FBEDF91DD
S1132D70CF91089581E080939607089580919807F4
S1132D80882331F080918F07882321F080E0089513
S1132D9081E0089582E008950F931F93CF93DF930A
S1132DA0FC01892B09F464C02689A091FC07B09129
S1132DB0FD0756968C91281708F04EC0848595859A
S1132DC0992364F0A091FC07B091FD0756963C91BD
S1132DD085E090E0831B91099587848730E0C901E1
S1132DE0880F991F880F991F880F991F280F391F63
S1132DF02153384F828593858217930721F58F01DC
S1132E00EF012296CE010E94A00CE091FC07F09104
S1132E10FD078689F801868B90919907981710F41D
S1132E208093990790E09C01220F331F220F331FD8
S1132E30220F331F820F931FBE018153984F0E94AC
S1132E404E0C81E016C0A091FC07B091FD07569688
S1132E508C91868B81E00DC0A091FC07B091FD0799
S1132E6081E021A156969C91291718F080E001C0B9
S1132E7080E0DF91CF911F910F9108950F931F93DD
S1132E80CF93DF93FC01892B79F182A1815082A336
S1132E90268991A1291751F181112AC0EF018F01CF
S1132EA00E5F1F4FC8010E94A00C89A18E8B25E0E4
S1132EB030E0281B31093D872C879091990798179A
S1132EC010F48093990790E09C01220F331F220F86
S1132ED0331F220F331F820F931FB8018153984F62
S1132EE00E944E0C81E005C080E003C080E001C078
S1132EF080E0DF91CF911F910F9108950F931F935D
S1132F00CF93DF93FC01892B09F443C091A1961759
S1132F1008F4962F86898917E1F122A12130C9F599
S1132F20968B24853585332334F025E030E0291B46
S1132F3031093587248790E09C01220F331F220F2B
S1132F40331F220F331F820F931F8153984F228503
S1132F50338528173907E9F4EF018F010E5F1F4FFE
S1132F60C8010E94A00C8E8990919907981710F4BB
S1132F708093990790E09C01220F331F220F331F87
S1132F80220F331F820F931FB8018153984F0E9461
S1132F904E0CDF91CF911F910F9108958091FC0702
S1132FA09091FD07892B39F0E091FC07F091FD0722
S1132FB082A18F5F82A38091FC079091FD07089501
S1132FC0FC0173836283918780874617570790F0CB
S1132FD0421B530B8485958548175907E0F4BF01BC
S1132FE06E5F7F4F80910408909105080E946F0CDA
S1132FF080E008954217530718F46217730768F4C2
S1133000BF016E5F7F4F80910608909107080E9470
S11330106F0C80E0089581E0089581E008950FB673
S1133020F8940F928091020890910308892BE9F497
S113303081E198E00E943C0C88E098E00E943C0CFE
S113304081E198E0909307088093060888E098E06F
S1133050909305088093040840E065E08FE00E94A7
S11330602B0F90930308809302080F900FBE0895CE
S1133070EF92FF920F93D3DF80910208909103089F
S1133080892B89F00F2EF0E0EF2EF8E0FF2EF02DC3
S113309004E020E030E044E650E06FE371E083E4D4
S11330A099E1E0D901C080E00F91FF90EF9008957D
S11330B08F929F92AF92BF92CF92DF92FF920F9323
S11330C01F93CF93DF934C015B01F42E690183E1DD
S11330D090E00E94510BEC01892B99F01A8A9FDF32
S11330E099828882BD86AC86DF86CE86198B088B52
S11330F0CE0102960E944A0CFF2019F08A8984604E
S11331008A8BCE01DF91CF911F910F91FF90DF90B9
S1133110CF90BF90AF909F908F9008950F931F937F
S1133120CF93DF9300D000D01F92CDB7DEB7E091EC
S11331300208F0910308309769F1D90169835B8330
S11331404A839D838C836630E4F418DE823061F414
S113315020E0A801BE016F5F7F4F8091020890912B
S113316003080E94550F17C020E040E050E0BE0164
S11331706F5F7F4F80910208909103080E94550F62
S11331800AC020E0AD01BE016F5F7F4FCF010E94F6
S1133190FF0F01C080E00F900F900F900F900F90E1
S11331A0DF91CF911F910F910895AF92BF92CF926B
S11331B0DF92EF92FF920F931F93CF93DF936C01F3
S11331C024DB7C018091FE079091FF07E816F90645
S11331D008F047C02FC00580F681E02DA080B180A3
S11331E0C681D7818E010E5F1F4FC8010E94A00CBB
S11331F0E889F989CE0109958A8982FF1BC08C85EB
S11332009D858A0D9B1DA816B90660F49B838A834D
S1133210D987C887B80180910608909107080E9451
S11332206F0C08C000E010E020E030E0A50160E091
S1133230CE0174DFE0910608F091070880818111C6
S1133240CACF809104089091050890930708809351
S11332500608F0930508E093040881E0F6018083F2
S113326002C0F6011082F092FF07E092FE07C70148
S1133270DF91CF911F910F91FF90EF90DF90CF904E
S1133280BF90AF900895CF93DF9300D000D000D0CB
S1133290CDB7DEB7CE0101964C0144244394E12C12
S11332A0F12C512CC82ED92CE0910608F091070876
S11332B08081882309F4D0C00580F681E02DA080A8
S11332C0B1809DDAC40171DF8C018981811147C00D
S11332D00A151B05A0F15BDBE0910608F0910708D5
S11332E00580F681E02D66807780C30102960E94F6
S11332F0A00CD30152968C91529782FF15C01C9654
S11333006D917C911D976A0D7B1D9501A801C301E8
S113331057DE882361F00E2D1F2D2E2D3F2DA50184
S1133320652DC301FBDE03C08E7FF301828BD301C5
S11333305096ED91FC915197C301099580C0452D9C
S1133340B501601B710B80910208909103080E94E3
S11333507B111DDB811173C00E94680D70C017DBE7
S11333606EC0898188230CF46AC0AC80BD80F501ED
S113337082859385892B21F0C50102960E94A00CB9
S1133380CE01069612DFE9810E2E000CFF0BEA3007
S1133390F10508F054C0EB5CFF4F70C0D5015296A4
S11333A02C915297216052962C9352972A813B81FB
S11333B01C966D917C911D97620F731FAC01C50122
S11333C0FFDD8823E1F1D5015096ED91FC915197F1
S11333D0C5010995F501828982FF31C04A815B816B
S11333E084859585480F591F0E2D1F2D2E2D3F2D99
S11333F0652DC50193DE23C0D50152968C91529759
S11334008E7F52968C931BC0F50122892160228BFA
S11334106A817B8175876487680F791F9C01AC0181
S1133420C501CEDD0CC0D50152968C9181FD04C03E
S1133430C5010E940C0C03C08E7FF501828B4E2DBA
S11334405F2D6C2D7D2D80910208909103080E94C0
S11334503710811186CF28CFD2D9C401A6DE8C01C2
S1133460898181117CCFE0910408F0910508808165
S1133470442D8111452DAE2CBF2C62CFEE0FFF1FC2
S11334800590F491E02D0994FB01DC0102C0019048
S11334900D9241505040D8F70895FB01DC010D9086
S11334A00020E9F7119701900D920020E1F70895AB
S10734B0F894FFCFBA
S11334B405630001202A2A20696C6C7920436F6615
S11334C4666565202A2A2000000000000000000030
S11334D400000000000000000000000000000000E4
S11334E400000000000000000000000000000000D4
S11334F431323334353637383904202A2A20696C7A
S11335046C7920436F66666565202A2A200053522D
S11335145920496E737566666963656E7420636FBA
S1133524696E7300496E7365727420436F696E73B8
S11335342000526566756E6400507265706172692C
S11335446E67005468616E6B730020776169743A26
S11335542000204E6F726D616C20436F6666656552
S11335642000204D696C6B20436F666665652000FE
S11335742043617070756363696E6F2020000102DB
S11335840201020412010306200149444C4500547B
S10B35946D7220537663000000
S9030000FC
